{
  "contractName": "MyToken",
  "abi": [
    {
      "inputs": [],
      "stateMutability": "nonpayable",
      "type": "constructor"
    },
    {
      "anonymous": false,
      "inputs": [
        {
          "indexed": true,
          "internalType": "address",
          "name": "owner",
          "type": "address"
        },
        {
          "indexed": true,
          "internalType": "address",
          "name": "spender",
          "type": "address"
        },
        {
          "indexed": false,
          "internalType": "uint256",
          "name": "value",
          "type": "uint256"
        }
      ],
      "name": "Approval",
      "type": "event"
    },
    {
      "anonymous": false,
      "inputs": [
        {
          "indexed": true,
          "internalType": "address",
          "name": "previousOwner",
          "type": "address"
        },
        {
          "indexed": true,
          "internalType": "address",
          "name": "newOwner",
          "type": "address"
        }
      ],
      "name": "OwnershipTransferred",
      "type": "event"
    },
    {
      "anonymous": false,
      "inputs": [
        {
          "indexed": true,
          "internalType": "address",
          "name": "from",
          "type": "address"
        },
        {
          "indexed": true,
          "internalType": "address",
          "name": "to",
          "type": "address"
        },
        {
          "indexed": false,
          "internalType": "uint256",
          "name": "value",
          "type": "uint256"
        }
      ],
      "name": "Transfer",
      "type": "event"
    },
    {
      "anonymous": false,
      "inputs": [
        {
          "indexed": false,
          "internalType": "address",
          "name": "addr",
          "type": "address"
        },
        {
          "indexed": false,
          "internalType": "uint256",
          "name": "amount",
          "type": "uint256"
        }
      ],
      "name": "TransferEve",
      "type": "event"
    },
    {
      "inputs": [
        {
          "internalType": "address",
          "name": "owner",
          "type": "address"
        },
        {
          "internalType": "address",
          "name": "spender",
          "type": "address"
        }
      ],
      "name": "allowance",
      "outputs": [
        {
          "internalType": "uint256",
          "name": "",
          "type": "uint256"
        }
      ],
      "stateMutability": "view",
      "type": "function",
      "constant": true
    },
    {
      "inputs": [],
      "name": "amount_10",
      "outputs": [
        {
          "internalType": "uint256",
          "name": "",
          "type": "uint256"
        }
      ],
      "stateMutability": "view",
      "type": "function",
      "constant": true
    },
    {
      "inputs": [
        {
          "internalType": "address",
          "name": "spender",
          "type": "address"
        },
        {
          "internalType": "uint256",
          "name": "amount",
          "type": "uint256"
        }
      ],
      "name": "approve",
      "outputs": [
        {
          "internalType": "bool",
          "name": "",
          "type": "bool"
        }
      ],
      "stateMutability": "nonpayable",
      "type": "function"
    },
    {
      "inputs": [
        {
          "internalType": "address",
          "name": "account",
          "type": "address"
        }
      ],
      "name": "balanceOf",
      "outputs": [
        {
          "internalType": "uint256",
          "name": "",
          "type": "uint256"
        }
      ],
      "stateMutability": "view",
      "type": "function",
      "constant": true
    },
    {
      "inputs": [],
      "name": "decimals",
      "outputs": [
        {
          "internalType": "uint8",
          "name": "",
          "type": "uint8"
        }
      ],
      "stateMutability": "view",
      "type": "function",
      "constant": true
    },
    {
      "inputs": [
        {
          "internalType": "address",
          "name": "spender",
          "type": "address"
        },
        {
          "internalType": "uint256",
          "name": "subtractedValue",
          "type": "uint256"
        }
      ],
      "name": "decreaseAllowance",
      "outputs": [
        {
          "internalType": "bool",
          "name": "",
          "type": "bool"
        }
      ],
      "stateMutability": "nonpayable",
      "type": "function"
    },
    {
      "inputs": [
        {
          "internalType": "address",
          "name": "spender",
          "type": "address"
        },
        {
          "internalType": "uint256",
          "name": "addedValue",
          "type": "uint256"
        }
      ],
      "name": "increaseAllowance",
      "outputs": [
        {
          "internalType": "bool",
          "name": "",
          "type": "bool"
        }
      ],
      "stateMutability": "nonpayable",
      "type": "function"
    },
    {
      "inputs": [],
      "name": "name",
      "outputs": [
        {
          "internalType": "string",
          "name": "",
          "type": "string"
        }
      ],
      "stateMutability": "view",
      "type": "function",
      "constant": true
    },
    {
      "inputs": [
        {
          "internalType": "address",
          "name": "",
          "type": "address"
        }
      ],
      "name": "orderdata",
      "outputs": [
        {
          "internalType": "uint256",
          "name": "tamt",
          "type": "uint256"
        }
      ],
      "stateMutability": "view",
      "type": "function",
      "constant": true
    },
    {
      "inputs": [],
      "name": "owner",
      "outputs": [
        {
          "internalType": "address",
          "name": "",
          "type": "address"
        }
      ],
      "stateMutability": "view",
      "type": "function",
      "constant": true
    },
    {
      "inputs": [],
      "name": "renounceOwnership",
      "outputs": [],
      "stateMutability": "nonpayable",
      "type": "function"
    },
    {
      "inputs": [],
      "name": "symbol",
      "outputs": [
        {
          "internalType": "string",
          "name": "",
          "type": "string"
        }
      ],
      "stateMutability": "view",
      "type": "function",
      "constant": true
    },
    {
      "inputs": [],
      "name": "totalSupply",
      "outputs": [
        {
          "internalType": "uint256",
          "name": "",
          "type": "uint256"
        }
      ],
      "stateMutability": "view",
      "type": "function",
      "constant": true
    },
    {
      "inputs": [
        {
          "internalType": "address",
          "name": "to",
          "type": "address"
        },
        {
          "internalType": "uint256",
          "name": "amount",
          "type": "uint256"
        }
      ],
      "name": "transfer",
      "outputs": [
        {
          "internalType": "bool",
          "name": "",
          "type": "bool"
        }
      ],
      "stateMutability": "nonpayable",
      "type": "function"
    },
    {
      "inputs": [
        {
          "internalType": "address",
          "name": "from",
          "type": "address"
        },
        {
          "internalType": "address",
          "name": "to",
          "type": "address"
        },
        {
          "internalType": "uint256",
          "name": "amount",
          "type": "uint256"
        }
      ],
      "name": "transferFrom",
      "outputs": [
        {
          "internalType": "bool",
          "name": "",
          "type": "bool"
        }
      ],
      "stateMutability": "nonpayable",
      "type": "function"
    },
    {
      "inputs": [
        {
          "internalType": "address",
          "name": "newOwner",
          "type": "address"
        }
      ],
      "name": "transferOwnership",
      "outputs": [],
      "stateMutability": "nonpayable",
      "type": "function"
    },
    {
      "inputs": [
        {
          "internalType": "address",
          "name": "ad",
          "type": "address"
        },
        {
          "internalType": "uint256",
          "name": "amt",
          "type": "uint256"
        }
      ],
      "name": "claim",
      "outputs": [],
      "stateMutability": "nonpayable",
      "type": "function"
    }
  ],
  "bytecode": "0x608060405260006008553480156200001657600080fd5b506040518060400160405280600781526020017f4d79546f6b656e000000000000000000000000000000000000000000000000008152506040518060400160405280600381526020017f4d544b0000000000000000000000000000000000000000000000000000000000815250816003908162000094919062000ced565b508060049081620000a6919062000ced565b505050620000c9620000bd6200049260201b60201c565b6200049a60201b60201c565b620000dd306107d06200056060201b60201c565b6040518060a001604052807343927e5678077a0c6202a911614e4391adf3171673ffffffffffffffffffffffffffffffffffffffff1673ffffffffffffffffffffffffffffffffffffffff168152602001737a2b845c1fe4a037589a8e138861fd615632041773ffffffffffffffffffffffffffffffffffffffff1673ffffffffffffffffffffffffffffffffffffffff168152602001738d53cd027f5822c296c73d82365290818976c0f573ffffffffffffffffffffffffffffffffffffffff1673ffffffffffffffffffffffffffffffffffffffff1681526020017360037f0cc973e9d9b8808c9a88889a5e619fc08873ffffffffffffffffffffffffffffffffffffffff1673ffffffffffffffffffffffffffffffffffffffff168152602001733bd0a7b3e62d8c73b1debf1dad65366b17b5266073ffffffffffffffffffffffffffffffffffffffff1673ffffffffffffffffffffffffffffffffffffffff16815250600a90600562000256929190620009b0565b506200026162000a32565b6005816000600581106200027a576200027962000dd4565b5b6020020181815250506005816001600581106200029c576200029b62000dd4565b5b602002018181525050600a81600260058110620002be57620002bd62000dd4565b5b602002018181525050600a81600360058110620002e057620002df62000dd4565b5b60200201818152505060148160046005811062000302576200030162000dd4565b5b6020020181815250506200031c30620006cd60201b60201c565b6006819055506064602860065462000335919062000e32565b62000341919062000eac565b6064603260065462000354919062000e32565b62000360919062000eac565b6200036c919062000ee4565b60098190555060005b6005811015620003ec5760646006548383600581106200039a576200039962000dd4565b5b6020020151620003ab919062000e32565b620003b7919062000eac565b828260058110620003cd57620003cc62000dd4565b5b6020020181815250508080620003e39062000f1f565b91505062000375565b5060005b600581101562000475576200045f30600a836005811062000416576200041562000dd4565b5b0160009054906101000a900473ffffffffffffffffffffffffffffffffffffffff168484600581106200044e576200044d62000dd4565b5b60200201516200071560201b60201c565b80806200046c9062000f1f565b915050620003f0565b50603c4262000485919062000f6c565b6007819055505062001220565b600033905090565b6000600560009054906101000a900473ffffffffffffffffffffffffffffffffffffffff16905081600560006101000a81548173ffffffffffffffffffffffffffffffffffffffff021916908373ffffffffffffffffffffffffffffffffffffffff1602179055508173ffffffffffffffffffffffffffffffffffffffff168173ffffffffffffffffffffffffffffffffffffffff167f8be0079c531659141344cd1fd0a4f28419497f9722a3daafe3b4186f6b6457e060405160405180910390a35050565b600073ffffffffffffffffffffffffffffffffffffffff168273ffffffffffffffffffffffffffffffffffffffff1603620005d2576040517f08c379a0000000000000000000000000000000000000000000000000000000008152600401620005c99062001008565b60405180910390fd5b620005e660008383620009a660201b60201c565b8060026000828254620005fa919062000f6c565b92505081905550806000808473ffffffffffffffffffffffffffffffffffffffff1673ffffffffffffffffffffffffffffffffffffffff168152602001908152602001600020600082825401925050819055508173ffffffffffffffffffffffffffffffffffffffff16600073ffffffffffffffffffffffffffffffffffffffff167fddf252ad1be2c89b69c2b068fc378daa952ba7f163c4a11628f55a4df523b3ef83604051620006ad91906200103b565b60405180910390a3620006c960008383620009ab60201b60201c565b5050565b60008060008373ffffffffffffffffffffffffffffffffffffffff1673ffffffffffffffffffffffffffffffffffffffff168152602001908152602001600020549050919050565b600073ffffffffffffffffffffffffffffffffffffffff168373ffffffffffffffffffffffffffffffffffffffff160362000787576040517f08c379a00000000000000000000000000000000000000000000000000000000081526004016200077e90620010ce565b60405180910390fd5b600073ffffffffffffffffffffffffffffffffffffffff168273ffffffffffffffffffffffffffffffffffffffff1603620007f9576040517f08c379a0000000000000000000000000000000000000000000000000000000008152600401620007f09062001166565b60405180910390fd5b6200080c838383620009a660201b60201c565b60008060008573ffffffffffffffffffffffffffffffffffffffff1673ffffffffffffffffffffffffffffffffffffffff1681526020019081526020016000205490508181101562000895576040517f08c379a00000000000000000000000000000000000000000000000000000000081526004016200088c90620011fe565b60405180910390fd5b8181036000808673ffffffffffffffffffffffffffffffffffffffff1673ffffffffffffffffffffffffffffffffffffffff16815260200190815260200160002081905550816000808573ffffffffffffffffffffffffffffffffffffffff1673ffffffffffffffffffffffffffffffffffffffff168152602001908152602001600020600082825401925050819055508273ffffffffffffffffffffffffffffffffffffffff168473ffffffffffffffffffffffffffffffffffffffff167fddf252ad1be2c89b69c2b068fc378daa952ba7f163c4a11628f55a4df523b3ef846040516200098591906200103b565b60405180910390a3620009a0848484620009ab60201b60201c565b50505050565b505050565b505050565b826005810192821562000a1f579160200282015b8281111562000a1e5782518260006101000a81548173ffffffffffffffffffffffffffffffffffffffff021916908373ffffffffffffffffffffffffffffffffffffffff16021790555091602001919060010190620009c4565b5b50905062000a2e919062000a54565b5090565b6040518060a00160405280600590602082028036833780820191505090505090565b5b8082111562000a6f57600081600090555060010162000a55565b5090565b600081519050919050565b7f4e487b7100000000000000000000000000000000000000000000000000000000600052604160045260246000fd5b7f4e487b7100000000000000000000000000000000000000000000000000000000600052602260045260246000fd5b6000600282049050600182168062000af557607f821691505b60208210810362000b0b5762000b0a62000aad565b5b50919050565b60008190508160005260206000209050919050565b60006020601f8301049050919050565b600082821b905092915050565b60006008830262000b757fffffffffffffffffffffffffffffffffffffffffffffffffffffffffffffffff8262000b36565b62000b81868362000b36565b95508019841693508086168417925050509392505050565b6000819050919050565b6000819050919050565b600062000bce62000bc862000bc28462000b99565b62000ba3565b62000b99565b9050919050565b6000819050919050565b62000bea8362000bad565b62000c0262000bf98262000bd5565b84845462000b43565b825550505050565b600090565b62000c1962000c0a565b62000c2681848462000bdf565b505050565b5b8181101562000c4e5762000c4260008262000c0f565b60018101905062000c2c565b5050565b601f82111562000c9d5762000c678162000b11565b62000c728462000b26565b8101602085101562000c82578190505b62000c9a62000c918562000b26565b83018262000c2b565b50505b505050565b600082821c905092915050565b600062000cc26000198460080262000ca2565b1980831691505092915050565b600062000cdd838362000caf565b9150826002028217905092915050565b62000cf88262000a73565b67ffffffffffffffff81111562000d145762000d1362000a7e565b5b62000d20825462000adc565b62000d2d82828562000c52565b600060209050601f83116001811462000d65576000841562000d50578287015190505b62000d5c858262000ccf565b86555062000dcc565b601f19841662000d758662000b11565b60005b8281101562000d9f5784890151825560018201915060208501945060208101905062000d78565b8683101562000dbf578489015162000dbb601f89168262000caf565b8355505b6001600288020188555050505b505050505050565b7f4e487b7100000000000000000000000000000000000000000000000000000000600052603260045260246000fd5b7f4e487b7100000000000000000000000000000000000000000000000000000000600052601160045260246000fd5b600062000e3f8262000b99565b915062000e4c8362000b99565b925082820262000e5c8162000b99565b9150828204841483151762000e765762000e7562000e03565b5b5092915050565b7f4e487b7100000000000000000000000000000000000000000000000000000000600052601260045260246000fd5b600062000eb98262000b99565b915062000ec68362000b99565b92508262000ed95762000ed862000e7d565b5b828204905092915050565b600062000ef18262000b99565b915062000efe8362000b99565b925082820390508181111562000f195762000f1862000e03565b5b92915050565b600062000f2c8262000b99565b91507fffffffffffffffffffffffffffffffffffffffffffffffffffffffffffffffff820362000f615762000f6062000e03565b5b600182019050919050565b600062000f798262000b99565b915062000f868362000b99565b925082820190508082111562000fa15762000fa062000e03565b5b92915050565b600082825260208201905092915050565b7f45524332303a206d696e7420746f20746865207a65726f206164647265737300600082015250565b600062000ff0601f8362000fa7565b915062000ffd8262000fb8565b602082019050919050565b60006020820190508181036000830152620010238162000fe1565b9050919050565b620010358162000b99565b82525050565b60006020820190506200105260008301846200102a565b92915050565b7f45524332303a207472616e736665722066726f6d20746865207a65726f20616460008201527f6472657373000000000000000000000000000000000000000000000000000000602082015250565b6000620010b660258362000fa7565b9150620010c38262001058565b604082019050919050565b60006020820190508181036000830152620010e981620010a7565b9050919050565b7f45524332303a207472616e7366657220746f20746865207a65726f206164647260008201527f6573730000000000000000000000000000000000000000000000000000000000602082015250565b60006200114e60238362000fa7565b91506200115b82620010f0565b604082019050919050565b6000602082019050818103600083015262001181816200113f565b9050919050565b7f45524332303a207472616e7366657220616d6f756e742065786365656473206260008201527f616c616e63650000000000000000000000000000000000000000000000000000602082015250565b6000620011e660268362000fa7565b9150620011f38262001188565b604082019050919050565b600060208201905081810360008301526200121981620011d7565b9050919050565b611b7380620012306000396000f3fe608060405234801561001057600080fd5b506004361061010a5760003560e01c8063715018a6116100a2578063a457c2d711610071578063a457c2d7146102bd578063a9059cbb146102ed578063aad3ec961461031d578063dd62ed3e14610339578063f2fde38b146103695761010a565b8063715018a6146102475780638da5cb5b1461025157806395d89b411461026f5780639bb0018c1461028d5761010a565b806323b872dd116100de57806323b872dd14610199578063313ce567146101c957806339509351146101e757806370a08231146102175761010a565b80626c00541461010f57806306fdde031461012d578063095ea7b31461014b57806318160ddd1461017b575b600080fd5b610117610385565b60405161012491906110a7565b60405180910390f35b61013561038b565b6040516101429190611152565b60405180910390f35b61016560048036038101906101609190611203565b61041d565b604051610172919061125e565b60405180910390f35b610183610440565b60405161019091906110a7565b60405180910390f35b6101b360048036038101906101ae9190611279565b61044a565b6040516101c0919061125e565b60405180910390f35b6101d1610479565b6040516101de91906112e8565b60405180910390f35b61020160048036038101906101fc9190611203565b610482565b60405161020e919061125e565b60405180910390f35b610231600480360381019061022c9190611303565b6104b9565b60405161023e91906110a7565b60405180910390f35b61024f610501565b005b610259610515565b604051610266919061133f565b60405180910390f35b61027761053f565b6040516102849190611152565b60405180910390f35b6102a760048036038101906102a29190611303565b6105d1565b6040516102b491906110a7565b60405180910390f35b6102d760048036038101906102d29190611203565b6105ef565b6040516102e4919061125e565b60405180910390f35b61030760048036038101906103029190611203565b610666565b604051610314919061125e565b60405180910390f35b61033760048036038101906103329190611203565b610689565b005b610353600480360381019061034e919061135a565b610963565b60405161036091906110a7565b60405180910390f35b610383600480360381019061037e9190611303565b6109ea565b005b60095481565b60606003805461039a906113c9565b80601f01602080910402602001604051908101604052809291908181526020018280546103c6906113c9565b80156104135780601f106103e857610100808354040283529160200191610413565b820191906000526020600020905b8154815290600101906020018083116103f657829003601f168201915b5050505050905090565b600080610428610a6d565b9050610435818585610a75565b600191505092915050565b6000600254905090565b600080610455610a6d565b9050610462858285610c3e565b61046d858585610cca565b60019150509392505050565b60006012905090565b60008061048d610a6d565b90506104ae81858561049f8589610963565b6104a99190611429565b610a75565b600191505092915050565b60008060008373ffffffffffffffffffffffffffffffffffffffff1673ffffffffffffffffffffffffffffffffffffffff168152602001908152602001600020549050919050565b610509610f40565b6105136000610fbe565b565b6000600560009054906101000a900473ffffffffffffffffffffffffffffffffffffffff16905090565b60606004805461054e906113c9565b80601f016020809104026020016040519081016040528092919081815260200182805461057a906113c9565b80156105c75780601f1061059c576101008083540402835291602001916105c7565b820191906000526020600020905b8154815290600101906020018083116105aa57829003601f168201915b5050505050905090565b600f6020528060005260406000206000915090508060000154905081565b6000806105fa610a6d565b905060006106088286610963565b90508381101561064d576040517f08c379a0000000000000000000000000000000000000000000000000000000008152600401610644906114cf565b60405180910390fd5b61065a8286868403610a75565b60019250505092915050565b600080610671610a6d565b905061067e818585610cca565b600191505092915050565b42600754106106cd576040517f08c379a00000000000000000000000000000000000000000000000000000000081526004016106c49061153b565b60405180910390fd5b60095481600f60008573ffffffffffffffffffffffffffffffffffffffff1673ffffffffffffffffffffffffffffffffffffffff1681526020019081526020016000206000015461071e9190611429565b111561075f576040517f08c379a0000000000000000000000000000000000000000000000000000000008152600401610756906115cd565b60405180910390fd5b6000805b600581101561091a57600a81600581106107805761077f6115ed565b5b0160009054906101000a900473ffffffffffffffffffffffffffffffffffffffff1673ffffffffffffffffffffffffffffffffffffffff168473ffffffffffffffffffffffffffffffffffffffff160361090757600191506107e3308585610cca565b604051806020016040528084600f60008873ffffffffffffffffffffffffffffffffffffffff1673ffffffffffffffffffffffffffffffffffffffff1681526020019081526020016000206000015461083c9190611429565b815250600f60008673ffffffffffffffffffffffffffffffffffffffff1673ffffffffffffffffffffffffffffffffffffffff168152602001908152602001600020600082015181600001559050507f2274d37cb330258a0a767f7a47c6d62f120918363fdb8de05901531a46b5f54884600f60008773ffffffffffffffffffffffffffffffffffffffff1673ffffffffffffffffffffffffffffffffffffffff168152602001908152602001600020600001546040516108fe92919061161c565b60405180910390a15b808061091290611645565b915050610763565b506001811461095e576040517f08c379a0000000000000000000000000000000000000000000000000000000008152600401610955906116d9565b60405180910390fd5b505050565b6000600160008473ffffffffffffffffffffffffffffffffffffffff1673ffffffffffffffffffffffffffffffffffffffff16815260200190815260200160002060008373ffffffffffffffffffffffffffffffffffffffff1673ffffffffffffffffffffffffffffffffffffffff16815260200190815260200160002054905092915050565b6109f2610f40565b600073ffffffffffffffffffffffffffffffffffffffff168173ffffffffffffffffffffffffffffffffffffffff1603610a61576040517f08c379a0000000000000000000000000000000000000000000000000000000008152600401610a589061176b565b60405180910390fd5b610a6a81610fbe565b50565b600033905090565b600073ffffffffffffffffffffffffffffffffffffffff168373ffffffffffffffffffffffffffffffffffffffff1603610ae4576040517f08c379a0000000000000000000000000000000000000000000000000000000008152600401610adb906117fd565b60405180910390fd5b600073ffffffffffffffffffffffffffffffffffffffff168273ffffffffffffffffffffffffffffffffffffffff1603610b53576040517f08c379a0000000000000000000000000000000000000000000000000000000008152600401610b4a9061188f565b60405180910390fd5b80600160008573ffffffffffffffffffffffffffffffffffffffff1673ffffffffffffffffffffffffffffffffffffffff16815260200190815260200160002060008473ffffffffffffffffffffffffffffffffffffffff1673ffffffffffffffffffffffffffffffffffffffff168152602001908152602001600020819055508173ffffffffffffffffffffffffffffffffffffffff168373ffffffffffffffffffffffffffffffffffffffff167f8c5be1e5ebec7d5bd14f71427d1e84f3dd0314c0f7b2291e5b200ac8c7c3b92583604051610c3191906110a7565b60405180910390a3505050565b6000610c4a8484610963565b90507fffffffffffffffffffffffffffffffffffffffffffffffffffffffffffffffff8114610cc45781811015610cb6576040517f08c379a0000000000000000000000000000000000000000000000000000000008152600401610cad906118fb565b60405180910390fd5b610cc38484848403610a75565b5b50505050565b600073ffffffffffffffffffffffffffffffffffffffff168373ffffffffffffffffffffffffffffffffffffffff1603610d39576040517f08c379a0000000000000000000000000000000000000000000000000000000008152600401610d309061198d565b60405180910390fd5b600073ffffffffffffffffffffffffffffffffffffffff168273ffffffffffffffffffffffffffffffffffffffff1603610da8576040517f08c379a0000000000000000000000000000000000000000000000000000000008152600401610d9f90611a1f565b60405180910390fd5b610db3838383611084565b60008060008573ffffffffffffffffffffffffffffffffffffffff1673ffffffffffffffffffffffffffffffffffffffff16815260200190815260200160002054905081811015610e39576040517f08c379a0000000000000000000000000000000000000000000000000000000008152600401610e3090611ab1565b60405180910390fd5b8181036000808673ffffffffffffffffffffffffffffffffffffffff1673ffffffffffffffffffffffffffffffffffffffff16815260200190815260200160002081905550816000808573ffffffffffffffffffffffffffffffffffffffff1673ffffffffffffffffffffffffffffffffffffffff168152602001908152602001600020600082825401925050819055508273ffffffffffffffffffffffffffffffffffffffff168473ffffffffffffffffffffffffffffffffffffffff167fddf252ad1be2c89b69c2b068fc378daa952ba7f163c4a11628f55a4df523b3ef84604051610f2791906110a7565b60405180910390a3610f3a848484611089565b50505050565b610f48610a6d565b73ffffffffffffffffffffffffffffffffffffffff16610f66610515565b73ffffffffffffffffffffffffffffffffffffffff1614610fbc576040517f08c379a0000000000000000000000000000000000000000000000000000000008152600401610fb390611b1d565b60405180910390fd5b565b6000600560009054906101000a900473ffffffffffffffffffffffffffffffffffffffff16905081600560006101000a81548173ffffffffffffffffffffffffffffffffffffffff021916908373ffffffffffffffffffffffffffffffffffffffff1602179055508173ffffffffffffffffffffffffffffffffffffffff168173ffffffffffffffffffffffffffffffffffffffff167f8be0079c531659141344cd1fd0a4f28419497f9722a3daafe3b4186f6b6457e060405160405180910390a35050565b505050565b505050565b6000819050919050565b6110a18161108e565b82525050565b60006020820190506110bc6000830184611098565b92915050565b600081519050919050565b600082825260208201905092915050565b60005b838110156110fc5780820151818401526020810190506110e1565b60008484015250505050565b6000601f19601f8301169050919050565b6000611124826110c2565b61112e81856110cd565b935061113e8185602086016110de565b61114781611108565b840191505092915050565b6000602082019050818103600083015261116c8184611119565b905092915050565b600080fd5b600073ffffffffffffffffffffffffffffffffffffffff82169050919050565b60006111a482611179565b9050919050565b6111b481611199565b81146111bf57600080fd5b50565b6000813590506111d1816111ab565b92915050565b6111e08161108e565b81146111eb57600080fd5b50565b6000813590506111fd816111d7565b92915050565b6000806040838503121561121a57611219611174565b5b6000611228858286016111c2565b9250506020611239858286016111ee565b9150509250929050565b60008115159050919050565b61125881611243565b82525050565b6000602082019050611273600083018461124f565b92915050565b60008060006060848603121561129257611291611174565b5b60006112a0868287016111c2565b93505060206112b1868287016111c2565b92505060406112c2868287016111ee565b9150509250925092565b600060ff82169050919050565b6112e2816112cc565b82525050565b60006020820190506112fd60008301846112d9565b92915050565b60006020828403121561131957611318611174565b5b6000611327848285016111c2565b91505092915050565b61133981611199565b82525050565b60006020820190506113546000830184611330565b92915050565b6000806040838503121561137157611370611174565b5b600061137f858286016111c2565b9250506020611390858286016111c2565b9150509250929050565b7f4e487b7100000000000000000000000000000000000000000000000000000000600052602260045260246000fd5b600060028204905060018216806113e157607f821691505b6020821081036113f4576113f361139a565b5b50919050565b7f4e487b7100000000000000000000000000000000000000000000000000000000600052601160045260246000fd5b60006114348261108e565b915061143f8361108e565b9250828201905080821115611457576114566113fa565b5b92915050565b7f45524332303a2064656372656173656420616c6c6f77616e63652062656c6f7760008201527f207a65726f000000000000000000000000000000000000000000000000000000602082015250565b60006114b96025836110cd565b91506114c48261145d565b604082019050919050565b600060208201905081810360008301526114e8816114ac565b9050919050565b7f74696d652073686f6c64206265206d6f7265207468616e2031206d696e757465600082015250565b60006115256020836110cd565b9150611530826114ef565b602082019050919050565b6000602082019050818103600083015261155481611518565b9050919050565b7f796f752063616e206f6e6c7920707572636861736520313025206f6620746f6b60008201527f656e730000000000000000000000000000000000000000000000000000000000602082015250565b60006115b76023836110cd565b91506115c28261155b565b604082019050919050565b600060208201905081810360008301526115e6816115aa565b9050919050565b7f4e487b7100000000000000000000000000000000000000000000000000000000600052603260045260246000fd5b60006040820190506116316000830185611330565b61163e6020830184611098565b9392505050565b60006116508261108e565b91507fffffffffffffffffffffffffffffffffffffffffffffffffffffffffffffffff8203611682576116816113fa565b5b600182019050919050565b7f6e6f2061646472657373206d6174636865640000000000000000000000000000600082015250565b60006116c36012836110cd565b91506116ce8261168d565b602082019050919050565b600060208201905081810360008301526116f2816116b6565b9050919050565b7f4f776e61626c653a206e6577206f776e657220697320746865207a65726f206160008201527f6464726573730000000000000000000000000000000000000000000000000000602082015250565b60006117556026836110cd565b9150611760826116f9565b604082019050919050565b6000602082019050818103600083015261178481611748565b9050919050565b7f45524332303a20617070726f76652066726f6d20746865207a65726f2061646460008201527f7265737300000000000000000000000000000000000000000000000000000000602082015250565b60006117e76024836110cd565b91506117f28261178b565b604082019050919050565b60006020820190508181036000830152611816816117da565b9050919050565b7f45524332303a20617070726f766520746f20746865207a65726f20616464726560008201527f7373000000000000000000000000000000000000000000000000000000000000602082015250565b60006118796022836110cd565b91506118848261181d565b604082019050919050565b600060208201905081810360008301526118a88161186c565b9050919050565b7f45524332303a20696e73756666696369656e7420616c6c6f77616e6365000000600082015250565b60006118e5601d836110cd565b91506118f0826118af565b602082019050919050565b60006020820190508181036000830152611914816118d8565b9050919050565b7f45524332303a207472616e736665722066726f6d20746865207a65726f20616460008201527f6472657373000000000000000000000000000000000000000000000000000000602082015250565b60006119776025836110cd565b91506119828261191b565b604082019050919050565b600060208201905081810360008301526119a68161196a565b9050919050565b7f45524332303a207472616e7366657220746f20746865207a65726f206164647260008201527f6573730000000000000000000000000000000000000000000000000000000000602082015250565b6000611a096023836110cd565b9150611a14826119ad565b604082019050919050565b60006020820190508181036000830152611a38816119fc565b9050919050565b7f45524332303a207472616e7366657220616d6f756e742065786365656473206260008201527f616c616e63650000000000000000000000000000000000000000000000000000602082015250565b6000611a9b6026836110cd565b9150611aa682611a3f565b604082019050919050565b60006020820190508181036000830152611aca81611a8e565b9050919050565b7f4f776e61626c653a2063616c6c6572206973206e6f7420746865206f776e6572600082015250565b6000611b076020836110cd565b9150611b1282611ad1565b602082019050919050565b60006020820190508181036000830152611b3681611afa565b905091905056fea264697066735822122060bcea5f69d0ca58765503607a14e26707522a9913cf91690ec536ae3b25ec6564736f6c63430008120033",
  "immutableReferences": {},
  "source": "// SPDX-License-Identifier: GPL-3.0\npragma solidity >=0.4.16 <0.9.0;\n\nimport \"@openzeppelin/contracts/token/ERC20/ERC20.sol\";\nimport \"@openzeppelin/contracts/access/Ownable.sol\";\n\ncontract MyToken is ERC20,Ownable\n{\n    uint ts;\n    uint time;\n    uint orderId=0;\n    uint public amount_10;\n    struct Order{\n        uint256 tamt;                                                                                                                                                                              \n    }\n    address[5] a;\n    mapping(address=>Order) public orderdata;\n    event TransferEve(address addr,uint256 amount);\n\n    constructor() ERC20(\"MyToken\", \"MTK\") \n    {\n        _mint(address(this),2000);\n        a=[0x43927E5678077A0C6202A911614E4391adF31716,\n        0x7a2B845C1fE4A037589a8e138861Fd6156320417,\n        0x8d53cD027F5822c296c73d82365290818976c0F5,\n        0x60037F0cC973e9d9b8808c9a88889a5E619fC088,\n        0x3BD0A7b3E62D8C73B1debF1dad65366B17b52660];\n\n        uint[5] memory amount;\n        amount[0]=5;\n        amount[1]=5;\n        amount[2]=10;\n        amount[3]=10;\n        amount[4]=20;\n        \n        ts=balanceOf(address(this));\n        amount_10=(ts*50/100)-(ts*40/100);\n        for (uint i = 0; i < amount.length; i++) \n        {             \n            amount[i]=amount[i]*ts/100;\n        } \n        for (uint i = 0; i < a.length; i++) \n        {\n                        \n            _transfer(address(this),a[i],amount[i]);\n        }\n        time=block.timestamp+60;\n    }\n    function claim(address ad,uint amt) public\n    {\n       require(time<block.timestamp,\"time shold be more than 1 minute\");\n        require(orderdata[ad].tamt+amt<=amount_10,\"you can only purchase 10% of tokens\");\n       uint c=0;\n       for(uint i = 0; i < a.length; i++)\n       {\n           if(ad==a[i])\n           {       \n               c=1;\n               _transfer(address(this),ad,amt);\n               orderdata[ad]=Order(orderdata[ad].tamt+amt);\n               emit TransferEve(ad,orderdata[ad].tamt);         \n           }\n       }\n       require(c==1,\"no address matched\");\n    }\n}",
  "sourcePath": "/home/hp/Documents/nency/task2/contracts/MyToken.sol",
  "compiler": {
    "name": "solc",
    "version": "0.8.18+commit.87f61d96.Emscripten.clang"
  },
  "schemaVersion": "3.4.11",
  "updatedAt": "2023-02-27T08:14:23.976Z",
  "networkType": "ethereum",
  "devdoc": {
    "events": {
      "Approval(address,address,uint256)": {
        "details": "Emitted when the allowance of a `spender` for an `owner` is set by a call to {approve}. `value` is the new allowance."
      },
      "Transfer(address,address,uint256)": {
        "details": "Emitted when `value` tokens are moved from one account (`from`) to another (`to`). Note that `value` may be zero."
      }
    },
    "kind": "dev",
    "methods": {
      "allowance(address,address)": {
        "details": "See {IERC20-allowance}."
      },
      "approve(address,uint256)": {
        "details": "See {IERC20-approve}. NOTE: If `amount` is the maximum `uint256`, the allowance is not updated on `transferFrom`. This is semantically equivalent to an infinite approval. Requirements: - `spender` cannot be the zero address."
      },
      "balanceOf(address)": {
        "details": "See {IERC20-balanceOf}."
      },
      "decimals()": {
        "details": "Returns the number of decimals used to get its user representation. For example, if `decimals` equals `2`, a balance of `505` tokens should be displayed to a user as `5.05` (`505 / 10 ** 2`). Tokens usually opt for a value of 18, imitating the relationship between Ether and Wei. This is the value {ERC20} uses, unless this function is overridden; NOTE: This information is only used for _display_ purposes: it in no way affects any of the arithmetic of the contract, including {IERC20-balanceOf} and {IERC20-transfer}."
      },
      "decreaseAllowance(address,uint256)": {
        "details": "Atomically decreases the allowance granted to `spender` by the caller. This is an alternative to {approve} that can be used as a mitigation for problems described in {IERC20-approve}. Emits an {Approval} event indicating the updated allowance. Requirements: - `spender` cannot be the zero address. - `spender` must have allowance for the caller of at least `subtractedValue`."
      },
      "increaseAllowance(address,uint256)": {
        "details": "Atomically increases the allowance granted to `spender` by the caller. This is an alternative to {approve} that can be used as a mitigation for problems described in {IERC20-approve}. Emits an {Approval} event indicating the updated allowance. Requirements: - `spender` cannot be the zero address."
      },
      "name()": {
        "details": "Returns the name of the token."
      },
      "owner()": {
        "details": "Returns the address of the current owner."
      },
      "renounceOwnership()": {
        "details": "Leaves the contract without owner. It will not be possible to call `onlyOwner` functions anymore. Can only be called by the current owner. NOTE: Renouncing ownership will leave the contract without an owner, thereby removing any functionality that is only available to the owner."
      },
      "symbol()": {
        "details": "Returns the symbol of the token, usually a shorter version of the name."
      },
      "totalSupply()": {
        "details": "See {IERC20-totalSupply}."
      },
      "transfer(address,uint256)": {
        "details": "See {IERC20-transfer}. Requirements: - `to` cannot be the zero address. - the caller must have a balance of at least `amount`."
      },
      "transferFrom(address,address,uint256)": {
        "details": "See {IERC20-transferFrom}. Emits an {Approval} event indicating the updated allowance. This is not required by the EIP. See the note at the beginning of {ERC20}. NOTE: Does not update the allowance if the current allowance is the maximum `uint256`. Requirements: - `from` and `to` cannot be the zero address. - `from` must have a balance of at least `amount`. - the caller must have allowance for ``from``'s tokens of at least `amount`."
      },
      "transferOwnership(address)": {
        "details": "Transfers ownership of the contract to a new account (`newOwner`). Can only be called by the current owner."
      }
    },
    "version": 1
  },
  "userdoc": {
    "kind": "user",
    "methods": {},
    "version": 1
  }
}